:020000040800F2
:10000000A8040020AD020008CB1E00080D1C00084B
:10001000C91E00081903000871260008000000002E
:10002000000000000000000000000000CF1E0008DB
:10003000CD05000800000000CD1E0008D11E0008FC
:10004000C7020008C7020008C7020008C70200086C
:10005000C7020008C7020008C7020008C70200085C
:10006000C7020008C7020008C7020008C70200084C
:10007000C7020008C7020008C7020008C70200083C
:10008000C7020008C7020008C7020008C70200082C
:10009000C7020008C7020008C7020008C70200081C
:1000A000C7020008C7020008C7020008C70200080C
:1000B000C7020008C7020008C7020008C7020008FC
:1000C000C7020008C7020008C7020008C7020008EC
:1000D000C7020008C7020008C7020008C7020008DC
:1000E000C7020008C702000800000000C70200089D
:1000F000C7020008C7020008C7020008C7020008BC
:10010000C7020008C7020008C7020008C7020008AB
:10011000C7020008C7020008C7020008C70200089B
:10012000C7020008C7020008C7020008C70200088B
:10013000C7020008C7020008C7020008C70200087B
:1001400000000000000000000000000000000000AF
:10015000C7020008C7020008C7020008C70200085B
:10016000C7020008C7020008C7020008C70200084B
:10017000C7020008C7020008C7020008000000000C
:10018000C7020008C7020008C7020008C70200082B
:10019000C7020008C7020008C7020008C70200081B
:1001A000C7020008C7020008C7020008C70200080B
:1001B000C7020008C7020008C7020008C7020008FB
:1001C000C7020008C7020008C7020008C7020008EB
:1001D000C7020008C7020008C7020008C7020008DB
:1001E000C7020008C7020008C7020008C7020008CB
:1001F000C7020008C7020008C7020008C7020008BB
:10020000C7020008C7020008C7020008C7020008AA
:10021000C7020008C7020008C7020008C70200089A
:10022000C7020008C7020008C7020008000000005B
:10023000C7020008C702000800000000C70200084B
:10024000C7020008C7020008C7020008C70200086A
:10025000C7020008C7020008C7020008C70200085A
:10026000C7020008C7020008C7020008C70200084A
:10027000C7020008C7020008C7020008000000000B
:10028000C7020008C7020008C702000800000000FB
:1002900000000000C7020008DFF80CD000F02AF8C8
:1002A00000480047B5260008A804002006488047FB
:1002B00006480047FEE7FEE7FEE7FEE7FEE7FEE74B
:1002C000FEE7FEE7FEE7FEE76D1F00089902000863
:1002D000D2B201E000F8012B491EFBD27047002288
:1002E000F6E710B513460A4604461946FFF7F0FF35
:1002F000204610BD064C074D06E0E06840F00103C3
:1003000094E8070098471034AC42F6D3FFF7C8FFD3
:100310000C2700082C270008FEE7000070B5524C9F
:10032000524E2DED028B9FED528A072840F2E9359F
:1003300075D2DFE800F09504182C465A75004A483B
:10034000002101F0FDFB4848002101F0ABF996EDDA
:10035000030A216820EE080ABCEEC00A10EE100A5B
:10036000C863082126E04048042101F0E9FB3E482B
:10037000042101F097F996ED030A216820EE080A9E
:10038000BCEEC00A10EE100A486300215BE036485C
:10039000082101F0D5FB3448082101F083F996EDDE
:1003A000030A216820EE080ABCEEC00A10EE100A0B
:1003B000486300212C4801F08DFB206885630421EF
:1003C00047E02948082101F0BBFB2748082101F03C
:1003D00069F996ED030A216820EE080ABCEEC00A0E
:1003E00010EE100A8863042112E01F48042101F076
:1003F000A7FB1D48042101F055F996ED030A216879
:1004000020EE080ABCEEC00A10EE100AC8630821EC
:10041000154801F05FFB20684563002119E01FE0EB
:100420001148002101F08CFB0F48002101F03AF93E
:1004300096ED030A216820EE080ABCEEC00A10EE11
:10044000100A88630421084801F044FB2068C56352
:1004500008210548BDEC028BBDE8704001F006B9EB
:10046000BDEC028B70BD00002800002000000020C1
:1004700000007A4470B5524C524E2DED028B9FED28
:10048000528A072840F2E93575D2DFE800F095047A
:10049000182C465A75004A48082101F051FB48487B
:1004A000082101F0FFF896ED030A216820EE080A02
:1004B000BCEEC00A10EE100A4863002154E0404828
:1004C000002101F03DFB3E48002101F0EBF896EDE4
:1004D000030A216820EE080ABCEEC00A10EE100ADA
:1004E0008863042112E03648042101F029FB3448D6
:1004F000042101F0D7F896ED030A216820EE080ADE
:10050000BCEEC00A10EE100A486300212C4801F02E
:10051000E1FA2068C563082147E02948042101F079
:100520000FFB2748042101F0BDF896ED030A21686E
:1005300020EE080ABCEEC00A10EE100AC8630821BB
:100540002DE01F48002101F0FBFA1D48002101F0B9
:10055000A9F896ED030A216820EE080ABCEEC00A4D
:1005600010EE100AC8630821154801F0B3FA20689C
:100570008563042119E01FE01148082101F0E0FA29
:100580000F48082101F08EF896ED030A216820EE4D
:10059000080ABCEEC00A10EE100A8863042108485D
:1005A00001F098FA2068456300210548BDEC028BF4
:1005B000BDE8704001F05AB8BDEC028B70BD000080
:1005C000280000200000002000007A44704700004E
:1005D0000E48002110B501F0B3FA0C48002101F0DB
:1005E00061F80A48042101F0ABFA0848042101F03F
:1005F00059F80648082101F0A3FA0448082101F03F
:1006000051F8BDE81040024800F0CCBF280000209F
:1006100068000020094810B500F0ACFF01F070FF41
:100620000748202101F04CF9054801686FF02000CF
:100630000861BDE81040024800F02CBE68000020B0
:1006400028000020704700002DE9F84F714C00236E
:100650004FF0B04E4FF001094FF0030B4FF00F0A6F
:10066000D0E000BF09FA03F812EA080274D04D681E
:10067000022D01D0122D0FD1DD085F0700EB85059B
:1006800000950E692D6AFF0E0AFA07FCBE4025EAA6
:100690000C052E43009D2E625D000F7906680BFA53
:1006A00005FC07F0030726EA0C06AF403743076056
:1006B0004E68012E05D0022E03D0112E01D0122E2D
:1006C0000FD18668CF6826EA0C06AF4037438760B3
:1006D00046680F7926EA0806C7F300179F4037439C
:1006E0004760C6688F6826EA0C06AF403743C7608C
:1006F0004D68ED0030D5484D2E6846F002062E605C
:100700002D6823F0030606F1B04605F002050095BA
:100710009D072F0FD6F80854DFF800810AFA07FC6E
:10072000404525EA0C0502D14FF0000C41E0DFF80E
:10073000F0C0604502D14FF0010C3AE0DFF8E4C0B0
:10074000604502D14FF0020C33E0DFF8DCC06045B9
:1007500003D14FF0030C2CE053E0DFF8D0C060452C
:1007600002D14FF0040C24E0DFF8C4C0604502D190
:100770004FF0050C1DE0DFF8BCC0604502D14FF022
:10078000060C16E0DFF8B0C0604502D14FF0070C50
:100790000FE0DFF8A8C0604502D14FF0080C08E078
:1007A000DFF89CC0604502D14FF0090C01E04FF02A
:1007B0000A0C0CFA07FC4CEA050CC6F808C42568BC
:1007C0004E6825EA0205F60300D5154325606568E5
:1007D0004E6825EA0205B60300D5154365604F68EB
:1007E0007546DEF80060FF0226EA020600D51643D1
:1007F0002E604F686E68BF0226EA020600D51643D7
:100800006E605B1C0A6832FA03F57FF42BAFBDE81B
:10081000F88F000080000058F4440258000002588D
:100820000004025800080258000C02580010025838
:100830000014025800180258001C025800200258E8
:10084000002402580069084000D0012070470AB116
:10085000816170470904FBE701480068000C70479C
:100860000010005C01488068704700001400002000
:1008700002488168027811448160704714000020AA
:10088000032010B500F084F800F0E0F90E490F4A9B
:100890000F4B0C68C4F30324145D04F01F04E04004
:1008A0001860096801F00F01515C01F01F01C84098
:1008B00008490860002000F00FF808B1012010BDC1
:1008C00000F02AF8002010BD18440258FC26000849
:1008D000200000202400002070B50D4D044628782B
:1008E000A0B14FF47A71B1FBF0F00A490968B1FB8D
:1008F000F0F000F0BCFC48B9102C07D200222146D1
:10090000501E00F025F800206C6070BD012070BD05
:100910001400002020000020054808B5016841F0BF
:1009200002010160006800F00200009008BD0000B4
:10093000F4440258002809DB410900F01F02890035
:10094000012001F1E0219040C1F800017047000052
:100950000E4BF0B41B680D46C3F30223C3F1070628
:10096000042E00D90426191D072901D2002300E016
:10097000DB1E012404FA06F19C40491E2940641E36
:10098000994014402143F0BC01F073BE0CED00E02F
:10099000064900F0070210B54FF6FF040868044B43
:1009A000204040EA02201843086010BD0CED00E032
:1009B0000000FA05134970B50A68D243520705D5FD
:1009C000096801F00701814213D118E00A6822F09A
:1009D000070202430A60FFF745FF0A4D4FF47A769B
:1009E0000446083D07E000BFFFF73CFF001BB04294
:1009F00001D9012070BD2868C0438004F4D40020D0
:100A000070BD00000C4802582DE9F05F04000F464D
:100A10007ED0DFF82482D8F8000000F00F00B84242
:100A20000CD2D8F8001021F00F013943C8F800109B
:100A3000D8F8000000F00F00B84269D120787F4D4F
:100A400040070AD52069296801F07001884204D95D
:100A5000296821F07001014329602078774E361D06
:100A600000070AD56069316801F07001884204D935
:100A7000316821F07001014331602078C0060AD549
:100A8000A069316801F4E061884204D9316821F439
:100A9000E061014331602078DFF8A0B180060BF1FE
:100AA000080B0CD5E1695846DBF8002002F0700213
:100AB000914204D9026822F070020A430260207851
:100AC00080070AD5E068296801F00F01884204D93F
:100AD000296821F00F01014329602078C0073ED02A
:100AE0005649A2682868183920F4706010432860BD
:100AF0006068022818D0032819D00968012819D085
:100B0000490700294ADADFF834A1AAF1080A00E00F
:100B100044E0DAF8002022F007020243CAF800207D
:100B2000FFF7A0FE814612E009688903E9E709683A
:100B30008901E6E7C905E4E7FFF794FEA0EB0901A8
:100B400041F28830814202D90320BDE8F09F6168FC
:100B5000DAF8000000F03800B0EBC10FECD12078DB
:100B600080070AD5E068296801F00F01884204D2A5
:100B7000296821F00F0101432960D8F80010404690
:100B800001F00F01B9420BD9016821F00F0139437F
:100B90000160006800F00F00B84201D00120D4E7E6
:100BA000207840070AD52069296801F07001884241
:100BB00004D2296821F070010143296020780007E0
:100BC0000AD56069316801F07001884204D2316849
:100BD00021F07001014331602078C0060AD5A06978
:100BE000316801F4E061884204D2316821F4E061A7
:100BF00001433160207880060CD5E1695846DBF866
:100C0000002002F07002914204D2026822F07002C9
:100C10000A43026000F01AF82968094AC1F3032167
:100C2000515C01F01F01C840064908600648006891
:100C3000BDE8F05FFFF750BE002000521844025894
:100C4000FC2600082000002018000020454970B54F
:100C500045480968434B103B11F0380208D0011198
:100C6000082A03D0102A0BD0182A0BD0084670BDD2
:100C700019688906FBD51968C1F3C101C84070BD68
:100C80003A4870BD3749374D18310C1D24350A6874
:100C9000096826682D6802F0030406F00102C1F31A
:100CA0000511C5F3CC0515FB02F200EE102AB8EED3
:100CB000400AE9B32F4ADFED2E0AB7EE001A6CB1F5
:100CC000DFED2D1A012C01D0022C43D002EE101AB8
:100CD0001068F8EE422A81EEA22A1EE01C68A406E3
:100CE00011D51B6801EE901A1168C3F3C103F8EE29
:100CF000612AD84001EE900AC1F30800F8EE611AAB
:100D000081EEA22A0BE001EE901ADFED1C2A00BF53
:100D1000F8EE611A106882EEA12AC0F3080001EE15
:100D2000900AF8EE611A40EE201A31EE810A00E0D6
:100D300015E022EE000A1068C0F34620401C00EEC9
:100D4000900AF8EE600A80EE201ABCEEC10A10EE9E
:100D5000100A70BD01EE901ADFED092AD8E70020D5
:100D600070BD0000104402580090D00340787D010F
:100D700000000039304402580024744A0024744CA6
:100D800020BCBE4B2DE9F05F04007CD0FF4F2078E3
:100D9000FE4D1837DFF8F493103DC00748D0D9F85E
:100DA0000000396800F03800102815D0182803D149
:100DB00001F0030002280FD06068B0F5803F12D028
:100DC00010B1B0F5A02F18D0286820F4803028602A
:100DD000286820F4802009E02868800328D560680E
:100DE0000028D2D024E0286840F480302860606871
:100DF00088B1FFF737FD064609E0286840F48020F7
:100E00002860F0E7FFF72EFD801B64287ED8286855
:100E10008003F7D50CE0FFF725FD064605E000BF8F
:100E2000FFF720FD801B6428F0D828688003F7D4E2
:100E3000207841F20308D54E0C3E80074BD5D9F8F7
:100E40000000396810F038000ED0182801D188074A
:100E50000AD0E06868B3296821F0190101432960CC
:100E6000FFF700FD824619E02868400702D5E068D8
:100E700000288AD0FFF7F0FC404513D8206931687C
:100E800021F47C3100E0BEE041EA0030306022E035
:100E9000FFF7E8FCA0EB0A000228B7D82868400753
:100EA000F6D5E7E7207C316821F0FE4141EA006099
:100EB000ECE7286820F001002860FFF7D3FC8246A9
:100EC00006E000BFFFF7CEFCA0EB0A0002289DD889
:100ED00028684007F6D42078C00659D5D9F8000014
:100EE000DFF8A8B2396800F03800ABF1040B08282D
:100EF00012D0182803D101F0030001280CD0E069BA
:100F00000028286834D040F0800000E0DCE0286051
:100F1000FFF7A8FC824623E02868C00523D5E069D6
:100F2000802870D11FE000BF94F82000316821F0C4
:100F3000F84141EA806030602AE000BF94F8201058
:100F4000DBF8002022F07C5242EA0161CBF800106D
:100F50001EE000BFFFF786FCA0EB0A0002289CD829
:100F60002868C005F6D5FFF777FC4045E6D8DBE7F3
:100F700020F080002860FFF775FC064605E000BF02
:100F8000FFF770FC801B022887D82868C005F7D4BB
:100F90002078000729D57D486169643000298046A2
:100FA000016811D041F001010160FFF75BFC0646CA
:100FB00005E000BFFFF756FC801B022887D8D8F851
:100FC00000008007F6D510E021F001010160FFF775
:100FD00049FC064605E000BFFFF744FC801B0228E1
:100FE00072D8D8F800008007F6D42078800623D580
:100FF000A0690028286810D040F480502860FFF7CE
:1010000031FC064605E02EE1FFF72CFC801B022890
:101010005AD828688004F7D50EE020F48050286064
:10102000FFF720FC064604E0FFF71CFC801B0228AB
:101030004AD828688004F7D4207840074FD5DFF8D5
:101040005081D8F8001041F48071C8F80010FFF703
:1010500009FC064605E000BFFFF704FC801B64287E
:1010600032D8D8F80000C005F6D5484EA0686036E2
:1010700001280AD008B1052813D0306820F00100FB
:101080003060306820F0040002E0306840F0010079
:101090003060A06841F2883A90B1FFF7E3FB8046E8
:1010A0000AE0306840F004003060EEE7FFF7DAFB5A
:1010B000A0EB0801514507D830688007F6D50EE04F
:1010C000FFF7D0FB804607E084E000BFFFF7CAFBD4
:1010D000A0EB080151457DD830688007F6D4606ADE
:1010E000F0B3DFF8A880D9F8001008F12008C1F3A8
:1010F000C20103296FD00228286820F08070286080
:1011000003D0FFF7AFFB044682E0FFF7ABFB0646D8
:1011100005E000BFFFF7A6FB801B022875D82868F2
:101120008001F7D4E26A40F2F331386854F8283F7E
:10113000884340EA021018433860217B4FF4FE0CCC
:1011400022894FF0FE47208A4902267D521E401E0A
:10115000A1F5007189B20CEA0040C2F3080200E078
:1011600083E01143761E0143084807EA06621143F3
:10117000064A1C30C8F800102432016821F0010131
:10118000016011684FF6F876B14303E0104402584D
:1011900000480258236A41EAC30111600168A2694C
:1011A00021F00C01114301600168E26921F00201A4
:1011B00011430160016841F480310160016841F42C
:1011C00000310160016841F480210160016841F053
:1011D000010101E019E01FE00160286840F0807023
:1011E0002860FFF73FFB044605E000BFFFF73AFB2E
:1011F000001B022809D828688001F7D535E000BF18
:10120000FFF730FB001B022802D90320BDE8F09F46
:1012100028688001F4D428E039680128D8F8000053
:1012200021D0A26A01F0030393421CD1E26AC1F308
:1012300005118A4217D1216BC0F30802491E8A4268
:1012400011D1616BC0F34622491E91420BD1A16BB3
:10125000C0F30642491E914205D1E16BC0F306601E
:10126000491E814201D00120D0E70020CEE7401E78
:10127000B0F1807F10B501D3012010BD4FF0E02404
:1012800060610F21601701F0F4F90020A0610721CF
:10129000216110BD38B50025009500F08FFC064C8B
:1012A0006060A0680128606803D0FFF737F8256008
:1012B00038BDFFF7DFF8FAE7000000202DE9F04322
:1012C00090F83C20012A42D0012280F83C2051F8BD
:1012D0000C4BDFF880804FF0000991E8680051E97D
:1012E000022723F44073B1F80CC03B43CF6923F4C9
:1012F00080631343026823F40063234323F4805381
:1013000043EA050323F4005343EA060323F480432E
:1013100043EA07030C3923F47023424543EA0C43A4
:1013200002D00D4CA2420CD18D8C23F47006D1E971
:10133000073446EA055121F08071194321F000730A
:101340002343536480F83C900020BDE8F0830220E2
:10135000FBE700000000014000040140F0B590F8F8
:101360003C30012B14D0012380F83C30D2F800C06F
:10137000BCF1010F0ED0BCF1020F10D0BCF1040F74
:1013800012D0BCF1080F14D000242346264614E0E6
:101390000220F0BD01240026630209250EE002248C
:1013A000012663020A2509E00424022663020B25B4
:1013B00004E0082600234FF480740025012902D0A0
:1013C00002292BD116E0D0F800E05168DEF86070F9
:1013D000B1402140A743BCF1080F41EA070106D004
:1013E000946821EA0302AC4004EA03011143CEF8F9
:1013F000601013E0D0F800E05168DEF86470B1408E
:101400002140A743BCF1080F41EA070104D09268CC
:101410009943AA401A401143CEF86410002180F885
:101420003C100846F0BD000030B590F83C30012B70
:1014300036D0012380F83C3061B110290AD0202930
:1014400008D0302906D0B1F5001F03D0A1F5001354
:10145000103B08D10368134D9C682C409C600368C6
:101460009C680C439C60016800234C6844F00104B4
:101470004C6001684C6824F004044C6001684C68BE
:1014800014434C600168CA6822F40052CA600168C3
:10149000CA6842F02002CA6080F83C30002030BDAB
:1014A000022030BD8FFFCFFFF0B504000F4687B09C
:1014B00004D094F83D00002518B107E0012007B0E2
:1014C000F0BD204684F83C5000F052F8022084F829
:1014D0003D002068211D00F097FDBB68032239689C
:1014E000206800F0BBFF206870261F4A1F4B8169EF
:1014F00021F00C01816120688169D7F804C041EABC
:101500000C0181612068416841F0800141602068E0
:101510008168114081602068816841F040018160EC
:1015200021688868184088602068816841F004015B
:101530008160059569460495069503950096029588
:10154000F8680190206800F043FE2068012142689D
:1015500022F0700242602068426842F0500242600D
:1015600084F83D100020AAE78FFFCFFFF8FFFEFFB1
:101570007047000010B5012204460068002100F009
:10158000A5FD2068064A81681140062906D0B1F5FC
:10159000803F03D0016841F001010160002010BDCF
:1015A00007000100002210B504460068114600F053
:1015B0008DFD206841F21112016A114207D1016AC2
:1015C0009210114203D1016821F001010160002055
:1015D00010BD0000F0B590F83C20012A38D01D4E17
:1015E000012480F83C40022280F83D2002681A4D18
:1015F0005368B242D2F808C001D0AA4203D14F6862
:1016000023F470033B430F6823F070031F435760BC
:101610000268B24210D0B2F1804F0DD00F4B9A4207
:101620000AD00F4B9A4207D00E4B9A4204D0AA42DE
:1016300002D00D4B9A4204D189682CF080031943E3
:101640009160002180F83D4080F83C100846F0BDD4
:101650000220F0BD000001400004014000040040F1
:1016600000080040000C00400018004010B50422A3
:101670000446006800F037FD2068094A416C41F4D7
:1016800000414164206881681140062906D0B1F507
:10169000803F03D0016841F001010160002010BDCE
:1016A0000700010010B500220446006800F01BFD91
:1016B000206841F211118A10036A0B4206D1036AB5
:1016C000134203D1436C23F4004343642068036A4C
:1016D0000B4206D1016A114203D1016821F00101D8
:1016E0000160002010BD10B5040003D094F83D0047
:1016F00010B107E0012010BD002084F83C00204616
:1017000000F00CF8022084F83D002068211D00F054
:101710007BFC012084F83D00002010BD10B586B090
:10172000044614216846FEF7DAFD224900232268A8
:1017300021488A424FF002011AD11F4A1032146820
:1017400044F001041460126802F00102059202687C
:1017500042F001020260006800F0010005904020A4
:1017600001228DE80B00CDE90312144869461CE004
:10177000134CA2421BD1104A0832146844F00204F0
:101780001460126802F002020592026842F004023C
:101790000260006800F0040005904FF4E0708DE8EE
:1017A0000B000848039104916946FEF74DFF06B00F
:1017B00010BD000000000140E04402580000025843
:1017C000000400400008025870B5044690F83C0040
:1017D000012814D0394B012584F83C50022084F8AC
:1017E0003D0022689068184020F47F4090600868AF
:1017F000702828D010DC10F00F0F03D04BE04FF012
:10180000020070BD4FEA2012072A44D2DFE802F03E
:101810005151515149323A00B0F1101F49D009DC01
:10182000B0F5805F37D0B0F5005F17D0B0F5801FFE
:1018300031D13EE0A0F5801120393AD0102938D0BE
:10184000202928D135E04A682068D1E9021300F048
:1018500057FC2068816841F0770109E04A682068F8
:10186000D1E9021300F04CFC2068816841F480410A
:10187000816010E0CA684968206800F0DDFD2068DA
:10188000502106E0CA684968206800F027FE2068F9
:10189000602100F03FFC002084F83D5084F83C00BB
:1018A00070BDCA684968206800F0C6FD2068402104
:1018B000EFE7226801461046EBE7000088FFCEFF05
:1018C00010B590F83C20012A0CD00122022380F8A8
:1018D0003D3004680023616180F83D2080F83C3091
:1018E000184610BD022010BDF0B587B00446142183
:1018F0006846FEF7F4FC1B492068884230D11A483C
:10190000016841F001010160016801F001010591E8
:10191000016841F010010160006802240025694659
:1019200000F010000590802001268DE831000F485E
:10193000CDE90346FEF788FE20020D4F8DE8310009
:10194000CDE9034669463846FEF77EFE4FF47050F7
:1019500069468DE83100CDE903463846FEF774FE4E
:1019600007B0F0BD00000140E044025800000258FA
:101970000010025870B5044690F83C000D4601284E
:101980000ED0012684F83C60022084F83D000C2A29
:1019900045D007DC5AB1042A1BD0082A78D12CE0A4
:1019A000022070BD102A4ED0142A71D15DE020684B
:1019B00000F0BAFB2068816941F00801816120686C
:1019C000816921F00401816120682A6981691143DC
:1019D00011E0206800F0FCFB2068816941F400619F
:1019E00081612068816921F48061816120682969B1
:1019F000826942EA012181614AE0206800F034FCFA
:101A00002068C16941F00801C1612068C16921F005
:101A10000401C16120682A69C169114311E020688D
:101A200000F068FC2068C16941F40061C161206870
:101A3000C16921F48061C16120682969C26942EAF3
:101A40000121C16124E0206800F08AFC2068416D1A
:101A500041F0080141652068416D21F004014165B4
:101A600020682A69416D114311E0206800F0AEFC46
:101A70002068416D41F4006141652068416D21F4A9
:101A80008061416520682969426D42EA0121416512
:101A9000002084F83D6084F83C0070BD10B504005F
:101AA00003D094F83D0010B107E0012010BD0020E4
:101AB00084F83C00204600F00CF8022084F83D0039
:101AC0002068211D00F0A0FA012084F83D000020CC
:101AD00010BD704710B501220446006800F0F6FA08
:101AE0001148216881420BD01048814208D010482B
:101AF000814205D00F48814202D00F48814203D174
:101B0000486C40F40040486420680C4A81681140E9
:101B1000062906D0B1F5803F03D0016841F00101EC
:101B20000160002010BD00000000014000040140E1
:101B3000004001400044014000480140070001000E
:101B400010B500220446006800F0C0FA41F21112FC
:101B500015482168931081420BD01448814208D067
:101B60001348814205D01348814202D01248814275
:101B700009D1086A104206D1086A184203D1486C9C
:101B800020F4004048642068016A114206D1016ACD
:101B9000194203D1016821F001010160012084F89C
:101BA0003D00002010BD0000000001400004014085
:101BB00000400140004401400048014070B5114C14
:101BC000002020614021104D2846FEF73BFE18B151
:101BD000206940F00100206180212846FEF732FE96
:101BE00018B1206940F0020020614FF4807128464E
:101BF000FEF728FE18B1206940F00400206120693A
:101C000070BD00000000002000080258FEE770B51B
:101C10000C460546FEF716FE012801D0002070BDD7
:101C200021462846FEF70EFE0128F9D0012070BD9E
:101C3000F0B587B014216846FEF751FB22480168D1
:101C400041F080010160016801F0800105910168A7
:101C500041F001010160016801F001010591016895
:101C600041F010010160016801F010010591016867
:101C700041F00401016000684FF4E056134F002268
:101C800000F00400314605903846FEF7E0FD0024E0
:101C900069464FF400500294CDE900040C48FEF769
:101CA000D3FC01250B48CDE9005469460294FEF7A8
:101CB000CBFC00966946CDE9015438460394FEF703
:101CC000C3FC07B0F0BD0000E0440258001C0258FD
:101CD000000802580000025830B59DB000241C21B5
:101CE00000940AA801940294039404940594069421
:101CF000079408940994FEF7F2FA2C2111A8FEF734
:101D0000EEFA4D48C7224B49802540F2E73380E880
:101D10001600C0E90334C0E90545FFF7E4FC08B14B
:101D2000FEF790FC44484FF4805569460095FFF754
:101D30004BFD08B1FEF786FC3F48FFF7AFFE08B148
:101D4000FEF780FC3C4804A9049405940694FFF730
:101D500041FC08B1FEF776FC01200790CDE90804AC
:101D600007AA01463448FFF7F9FA08B1FEF76AFC02
:101D70000AAA6020962182E813002F4800220AA9AF
:101D80000D940E940F941094FFF7F4FD08B1FEF734
:101D900059FC294804220AA9FFF7ECFD08B1FEF717
:101DA00051FC254808220AA9FFF7E4FD08B1FEF717
:101DB00049FC214804223021FFF736FB00221A207B
:101DC0001146FEF7C5FD1A20FEF7B4FD1A480021A2
:101DD000FFF7B6FE18480021FFF764FC16480421FF
:101DE000FFF7AEFE14480421FFF75CFC12480821FF
:101DF000FFF7A6FE10480821FFF754FC0F201194AE
:101E000015954FF400511294CDE913400A030A4886
:101E1000CDE9161411A91A94CDE918421B94FFF7C5
:101E20004DFA08B1FEF70EFC0348FFF75DFD1DB04B
:101E300030BD0000000001402800002030B58BB00C
:101E4000204800241E49C7224FF6FF7300948025C6
:101E500001940294039404940594069407940894BE
:101E600009940A9480E816008561C0E90334FFF7FD
:101E70003AFC08B1FEF7E6FB4FF4805000901148A1
:101E80006946FFF7A1FC08B1FEF7DCFB01210A203F
:101E9000CDE90404CDE906010A4804A9FFF704FBD3
:101EA00008B1FEF7CFFB50200890064808A90A9415
:101EB000FFF790FB002801D0FEF7C4FB0BB030BD4C
:101EC0000004004068000020FEE77047704770473C
:101ED000FEF7CEBC30B59DB04C216846FEF7FFF949
:101EE000202113A8FEF7FBF90220FEF763FD1D4930
:101EF00000241D480A6822F001020A60096801688E
:101F000041F440410160016801F440411B910168C6
:101F10008904FCD54025022000900123CDE903353A
:101F200004210B913222CDE90904CDE90C200FAA3E
:101F30000E900C2382E8190068461294FEF722FFE7
:101F400008221A95CDE91625D30113AA3F200321B3
:101F5000CDE9185382E81300022113A8FEF754FDBF
:101F60001DB030BD2C04005818480258214A30B525
:101F7000214914680020204B44F47004146010338D
:101F80000A681E4D42F001020A6018600A681A4B86
:101F90002A400A6018331C1D251D174A1860283274
:101FA0002060131D28601C1D251D10602A1D18604F
:101FB000131D20601C1D2860251D10601860206006
:101FC00028600A680C4B0E4C22F4802260330A60B1
:101FD000186020686FF30F00B0F1005F03D2094969
:101FE0000120C1F808014FF0006002498039086003
:101FF00030BD000088ED00E0004402587FEDF6EAB5
:102000000010005C008000512DE9F047274B4FF095
:10201000804A274D02689842264E274F274C09D008
:10202000504507D0A84205D0B04203D0B84201D0F5
:10203000A04205D1D1F804C022F070024CEA02029D
:10204000DFF87CC0DFF87C809842DFF87C900FD00E
:1020500050450DD0A8420BD0B04209D0B84207D0AD
:10206000A04205D0604503D0404501D0484503D18A
:10207000CD6822F440722A434D6922F080022A433F
:10208000026098428A68C2620A68826207D0A042EF
:1020900005D0604503D0404501D0484501D10969CC
:1020A000016301214161BDE8F087000000000140AB
:1020B0000004004000080040000C00400004014003
:1020C00000400140004401400048014010B5046A4E
:1020D000012301F01F018B409C4304628A40016A86
:1020E0001143016210BD10B5046A042301F01F0101
:1020F0008B409C4304628A40016A1143016210BD17
:1021000042EA032283680A4323F47F410A43826040
:1021100070470000034B82681A400A4342F00701EF
:10212000816070478FFFCFFF2DE9F04F026ADFF823
:102130008880DFF8889022F00102DFF884A0DFF8C1
:1021400084B0214F0262DFF884C0066A4268836966
:1021500026F002060D68B8428C6803EA0C0323F0EF
:10216000030344EA060445EA030507D0404505D0C9
:10217000484503D0504501D0584505D1CB6824F0DF
:102180000804234323F00404B84207D0404505D097
:10219000484503D0504501D0584505D122F440763A
:1021A000D1E9053233431A4342608561496841638E
:1021B0000462BDE8F08F00000004014000400140CF
:1021C0000044014000480140000001408FFFFEFF35
:1021D000F0B5026A1E4E1F4C22F01002DFF878E0C4
:1021E0000262056A4368826925F02005D1F808C0BB
:1021F000A0420F6802EA060222F4407245EA0C157A
:1022000042EA072201D0704506D1CE6825F080054C
:1022100045EA061525F04005A0420AD0704508D0D1
:102220000E4CA04205D00E4CA04202D00D4CA04254
:1022300007D1D1E9054623F4406343EA840343EA26
:10224000860343608261496881630562F0BD0000D6
:10225000FF8FFFFE000001400004014000400140EC
:102260000044014000480140F0B5026A1C4D1D4E7B
:1022700022F48072A8420262026A4368C76922F4AB
:102280000072D1F808C00C6827F0730742EA0C22EC
:1022900044EA070401D0B04206D1CF6822F40062BC
:1022A00042EA072222F48062A8420AD0B04208D053
:1022B0000D4DA84205D00D4DA84202D00C4DA842AC
:1022C00007D1D1E9055623F4405343EA051343EA05
:1022D00006134360C4614968C1630262F0BD000037
:1022E0000000014000040140004001400044014062
:1022F0000048014070B5026A144B22F48052026219
:102300009842036A4268C46923F400538E680D68DA
:1023100024F4E64443EA063344EA05240BD00C4D8A
:10232000A84208D00B4DA84205D00B4DA84202D0C0
:102330000A4DA84204D14D6922F4804242EA851236
:102340004260C46149680164036270BD00000140DD
:1023500000040140004001400044014000480140A9
:10236000F0B5026A22F480320262134F056A4268B5
:10237000446D25F400350E89B8420B6824F07004D2
:1023800045EA064543EA04030BD00C4CA04208D0B2
:102390000B4CA04205D00B4CA04202D00A4CA042EC
:1023A00004D14C6922F4803242EA0422426043653F
:1023B000496881650562F0BD0000014000040140EC
:1023C000004001400044014000480140F0B5026A6D
:1023D00022F480120262134F046A4268436D24F4AF
:1023E00000140E89B8420D6823F4E04344EA065411
:1023F00043EA05230BD00C4DA84208D00B4DA84250
:1024000005D00B4DA84202D00A4DA84204D14D6917
:1024100022F4003242EA8522426043654968C16580
:102420000462F0BD00000140000401400040014092
:10243000004401400048014010B5036A046A23F0DB
:102440000A0324F00104046284690B4324F0F001C0
:1024500041EA02118161036210BD000070B5046A97
:10246000174D24F001040462A8428469056A14D05F
:10247000B0F1804F11D0134EB0420ED0124EB04288
:102480000BD0124EB04208D0114EB04205D0114EC2
:10249000B04202D0104EB04203D124F003041443E2
:1024A00001E044F001041A0724F0F00325F00A04C7
:1024B00001F00A01214343EA12628261016270BDA8
:1024C000000001400004004000080040000C0040F3
:1024D00000040140001800400040014010B5036AAC
:1024E00023F0100303628369046A23F4704324F029
:1024F000A00443EA0232826144EA0111016210BD84
:10250000F0B500262DED028B81B00096FFF756FB4B
:10251000544D6860A868012803D16868C0F10700BD
:102520006860514C9FED518A686840F2E93707288E
:1025300030D2DFE800F02F0418344E627C004A48A5
:102540000421FFF7FDFA48480421FFF7ABF895EDA9
:10255000030A216820EE080ABCEEC00A10EE100A39
:10256000C86308215CE040480821FFF7E9FA3E48CB
:102570000821FFF797F895ED030A216820EE080A75
:10258000BCEEC00A10EE100A486300211AE036487B
:10259000FFF76CF82E6001B0BDEC028BF0BD324845
:1025A0000021FFF7CDFA30480021FFF77BF895EDC9
:1025B000030A216820EE080ABCEEC00A10EE100AD9
:1025C000C86308212848FFF785FA2068876304213B
:1025D000DDE725480021FFF7B3FA23480021FFF784
:1025E00061F895ED030A216820EE080ABCEEC00AE6
:1025F00010EE100A886304212CE01B480821FFF725
:102600009FFA19480821FFF74DF895ED030A216854
:1026100020EE080ABCEEC00A10EE100A88630421FE
:102620001148FFF757FA206847630021AFE70E48CB
:102630000421FFF785FA0C480421FFF733F895EDE4
:10264000030A216820EE080ABCEEC00A10EE100A48
:10265000486300210448FFF73DFA2068C76308215A
:1026600095E70000000000202800002000007A44C8
:10267000FEE7090700284FEA116104DB00F1E020C2
:1026800080F80014704700F00F0000F1E02080F89F
:10269000141D704702E008C8121F08C1002AFAD1B1
:1026A00070477047002001E001C1121F002AFBD1D2
:1026B00070470000FEF7E4F8FFF70CFCFFF7B8FAEC
:1026C000FFF7BCFBFFF708FB0A4C4FF400550A4E1E
:1026D00001212046FFF79BFA012801D1FDF79AFF5F
:1026E00029463046FFF793FA0128F1D1FDF770FF34
:1026F000EEE7000000000258000802580000000049
:102700000102030401020304060708092C2700083C
:10271000000000202800000094260008542700082C
:102720002800002080040000A4260008000000000B
:1027300000000000FFFFFFFF9A99193E0000000013
:102740000100000010000000000000000090D00315
:042750000090D00322
:040000050800029954
:00000001FF
